{
  "contractName": "GestionCurso",
  "abi": [
    {
      "constant": true,
      "inputs": [],
      "name": "miInstructor",
      "outputs": [
        {
          "name": "fName",
          "type": "string"
        },
        {
          "name": "age",
          "type": "uint256"
        }
      ],
      "payable": false,
      "stateMutability": "view",
      "type": "function"
    },
    {
      "constant": true,
      "inputs": [
        {
          "name": "",
          "type": "uint256"
        }
      ],
      "name": "misCursos",
      "outputs": [
        {
          "name": "nombreCurso",
          "type": "string"
        },
        {
          "name": "nSesiones",
          "type": "uint256"
        }
      ],
      "payable": false,
      "stateMutability": "view",
      "type": "function"
    },
    {
      "constant": true,
      "inputs": [],
      "name": "ncursos",
      "outputs": [
        {
          "name": "",
          "type": "uint256"
        }
      ],
      "payable": false,
      "stateMutability": "view",
      "type": "function"
    },
    {
      "constant": false,
      "inputs": [
        {
          "name": "_fName",
          "type": "string"
        },
        {
          "name": "_age",
          "type": "uint256"
        }
      ],
      "name": "setInstructor",
      "outputs": [],
      "payable": false,
      "stateMutability": "nonpayable",
      "type": "function"
    },
    {
      "constant": true,
      "inputs": [],
      "name": "getInstructor",
      "outputs": [
        {
          "name": "",
          "type": "string"
        },
        {
          "name": "",
          "type": "uint256"
        }
      ],
      "payable": false,
      "stateMutability": "view",
      "type": "function"
    },
    {
      "constant": false,
      "inputs": [
        {
          "name": "_name",
          "type": "string"
        },
        {
          "name": "_nsesiones",
          "type": "uint256"
        }
      ],
      "name": "registraCurso",
      "outputs": [],
      "payable": false,
      "stateMutability": "nonpayable",
      "type": "function"
    },
    {
      "constant": true,
      "inputs": [
        {
          "name": "_id",
          "type": "uint256"
        }
      ],
      "name": "getCursoByID",
      "outputs": [
        {
          "name": "",
          "type": "string"
        },
        {
          "name": "",
          "type": "uint256"
        }
      ],
      "payable": false,
      "stateMutability": "view",
      "type": "function"
    }
  ],
  "bytecode": "0x608060405234801561001057600080fd5b506108f3806100206000396000f300608060405260043610610083576000357c0100000000000000000000000000000000000000000000000000000000900463ffffffff168063108eb8cf1461008857806322faf03a146100fb57806337f220781461016e5780633c1b81a514610205578063694a7a971461029c578063940d095514610349578063b944c25d146103f6575b600080fd5b34801561009457600080fd5b506100f9600480360381019080803590602001908201803590602001908080601f016020809104026020016040519081016040528093929190818152602001838380828437820191505050505050919291929080359060200190929190505050610421565b005b34801561010757600080fd5b5061016c600480360381019080803590602001908201803590602001908080601f016020809104026020016040519081016040528093929190818152602001838380828437820191505050505050919291929080359060200190929190505050610487565b005b34801561017a57600080fd5b506101836104ae565b6040518080602001838152602001828103825284818151815260200191508051906020019080838360005b838110156101c95780820151818401526020810190506101ae565b50505050905090810190601f1680156101f65780820380516001836020036101000a031916815260200191505b50935050505060405180910390f35b34801561021157600080fd5b5061021a610558565b6040518080602001838152602001828103825284818151815260200191508051906020019080838360005b83811015610260578082015181840152602081019050610245565b50505050905090810190601f16801561028d5780820380516001836020036101000a031916815260200191505b50935050505060405180910390f35b3480156102a857600080fd5b506102c76004803603810190808035906020019092919050505061060a565b6040518080602001838152602001828103825284818151815260200191508051906020019080838360005b8381101561030d5780820151818401526020810190506102f2565b50505050905090810190601f16801561033a5780820380516001836020036101000a031916815260200191505b50935050505060405180910390f35b34801561035557600080fd5b50610374600480360381019080803590602001909291905050506106c6565b6040518080602001838152602001828103825284818151815260200191508051906020019080838360005b838110156103ba57808201518184015260208101905061039f565b50505050905090810190601f1680156103e75780820380516001836020036101000a031916815260200191505b50935050505060405180910390f35b34801561040257600080fd5b5061040b61079c565b6040518082815260200191505060405180910390f35b604080519081016040528083815260200182815250600260006003600081548092919060010191905055815260200190815260200160002060008201518160000190805190602001906104759291906107a2565b50602082015181600101559050505050565b8160008001908051906020019061049f929190610822565b50806000600101819055505050565b6000806000018054600181600116156101000203166002900480601f0160208091040260200160405190810160405280929190818152602001828054600181600116156101000203166002900480156105485780601f1061051d57610100808354040283529160200191610548565b820191906000526020600020905b81548152906001019060200180831161052b57829003601f168201915b5050505050908060010154905082565b6060600080600001600060010154818054600181600116156101000203166002900480601f0160208091040260200160405190810160405280929190818152602001828054600181600116156101000203166002900480156105fb5780601f106105d0576101008083540402835291602001916105fb565b820191906000526020600020905b8154815290600101906020018083116105de57829003601f168201915b50505050509150915091509091565b6002602052806000526040600020600091509050806000018054600181600116156101000203166002900480601f0160208091040260200160405190810160405280929190818152602001828054600181600116156101000203166002900480156106b65780601f1061068b576101008083540402835291602001916106b6565b820191906000526020600020905b81548152906001019060200180831161069957829003601f168201915b5050505050908060010154905082565b60606000600260008481526020019081526020016000206000016002600085815260200190815260200160002060010154818054600181600116156101000203166002900480601f01602080910402602001604051908101604052809291908181526020018280546001816001161561010002031660029004801561078c5780601f106107615761010080835404028352916020019161078c565b820191906000526020600020905b81548152906001019060200180831161076f57829003601f168201915b5050505050915091509150915091565b60035481565b828054600181600116156101000203166002900490600052602060002090601f016020900481019282601f106107e357805160ff1916838001178555610811565b82800160010185558215610811579182015b828111156108105782518255916020019190600101906107f5565b5b50905061081e91906108a2565b5090565b828054600181600116156101000203166002900490600052602060002090601f016020900481019282601f1061086357805160ff1916838001178555610891565b82800160010185558215610891579182015b82811115610890578251825591602001919060010190610875565b5b50905061089e91906108a2565b5090565b6108c491905b808211156108c05760008160009055506001016108a8565b5090565b905600a165627a7a72305820fe3daf15a97c1b832bcd891b9300382348c9a1106e99a025a4ede78fa5c7fcdb0029",
  "source": "pragma solidity ^0.4.24;\n\ncontract GestionCurso {\n    \n    struct instructor{\n        string fName;\n        uint age;\n    }\n\n    struct curso{\n        string nombreCurso;\n        uint nSesiones;\n    }\n\n    instructor public miInstructor;   \n    mapping(uint => curso) public misCursos;\n    uint public ncursos;\n   \n    function setInstructor(string _fName, uint _age) public {\n        miInstructor.fName = _fName;\n        miInstructor.age = _age;\n    }\n   \n    function getInstructor() public view returns (string, uint) {\n        return (miInstructor.fName, miInstructor.age);\n    }\n\n    function registraCurso(string _name, uint _nsesiones) public {\n        misCursos[ncursos++] = curso(_name,_nsesiones);\n    }\n    \n    function getCursoByID(uint _id) public view returns (string, uint) {\n        return (misCursos[_id].nombreCurso, misCursos[_id].nSesiones);\n    }\n}",
  "sourcePath": "/Users/garvazsof/Desktop/Curso Blockchain/testweb3/contracts/GestionCurso.sol",
  "compiler": {
    "name": "solc",
    "version": "0.4.24+commit.e67f0147.Emscripten.clang"
  },
  "schemaVersion": "2.0.1",
  "updatedAt": "2018-11-13T08:49:23.785Z"
}