{
  "contractName": "GestionCurso",
  "abi": [
    {
      "constant": true,
      "inputs": [],
      "name": "miInstructor",
      "outputs": [
        {
          "name": "fName",
          "type": "string"
        },
        {
          "name": "age",
          "type": "uint256"
        }
      ],
      "payable": false,
      "stateMutability": "view",
      "type": "function"
    },
    {
      "constant": true,
      "inputs": [
        {
          "name": "",
          "type": "uint256"
        }
      ],
      "name": "misCursos",
      "outputs": [
        {
          "name": "nombreCurso",
          "type": "string"
        },
        {
          "name": "nSesiones",
          "type": "uint256"
        }
      ],
      "payable": false,
      "stateMutability": "view",
      "type": "function"
    },
    {
      "constant": true,
      "inputs": [],
      "name": "ncursos",
      "outputs": [
        {
          "name": "",
          "type": "uint256"
        }
      ],
      "payable": false,
      "stateMutability": "view",
      "type": "function"
    },
    {
      "anonymous": false,
      "inputs": [
        {
          "indexed": false,
          "name": "name",
          "type": "string"
        },
        {
          "indexed": false,
          "name": "age",
          "type": "uint256"
        }
      ],
      "name": "Instructor",
      "type": "event"
    },
    {
      "constant": false,
      "inputs": [
        {
          "name": "_fName",
          "type": "string"
        },
        {
          "name": "_age",
          "type": "uint256"
        }
      ],
      "name": "setInstructor",
      "outputs": [],
      "payable": false,
      "stateMutability": "nonpayable",
      "type": "function"
    },
    {
      "constant": true,
      "inputs": [],
      "name": "getInstructor",
      "outputs": [
        {
          "name": "",
          "type": "string"
        },
        {
          "name": "",
          "type": "uint256"
        }
      ],
      "payable": false,
      "stateMutability": "view",
      "type": "function"
    },
    {
      "constant": false,
      "inputs": [
        {
          "name": "_name",
          "type": "string"
        },
        {
          "name": "_nsesiones",
          "type": "uint256"
        }
      ],
      "name": "registraCurso",
      "outputs": [],
      "payable": false,
      "stateMutability": "nonpayable",
      "type": "function"
    },
    {
      "constant": true,
      "inputs": [
        {
          "name": "_id",
          "type": "uint256"
        }
      ],
      "name": "getCursoByID",
      "outputs": [
        {
          "name": "",
          "type": "string"
        },
        {
          "name": "",
          "type": "uint256"
        }
      ],
      "payable": false,
      "stateMutability": "view",
      "type": "function"
    }
  ],
  "bytecode": "0x608060405234801561001057600080fd5b506109e1806100206000396000f300608060405260043610610083576000357c0100000000000000000000000000000000000000000000000000000000900463ffffffff168063108eb8cf1461008857806322faf03a146100fb57806337f220781461016e5780633c1b81a514610205578063694a7a971461029c578063940d095514610349578063b944c25d146103f6575b600080fd5b34801561009457600080fd5b506100f9600480360381019080803590602001908201803590602001908080601f016020809104026020016040519081016040528093929190818152602001838380828437820191505050505050919291929080359060200190929190505050610421565b005b34801561010757600080fd5b5061016c600480360381019080803590602001908201803590602001908080601f0160208091040260200160405190810160405280939291908181526020018383808284378201915050505050509192919290803590602001909291905050506104ac565b005b34801561017a57600080fd5b5061018361059c565b6040518080602001838152602001828103825284818151815260200191508051906020019080838360005b838110156101c95780820151818401526020810190506101ae565b50505050905090810190601f1680156101f65780820380516001836020036101000a031916815260200191505b50935050505060405180910390f35b34801561021157600080fd5b5061021a610646565b6040518080602001838152602001828103825284818151815260200191508051906020019080838360005b83811015610260578082015181840152602081019050610245565b50505050905090810190601f16801561028d5780820380516001836020036101000a031916815260200191505b50935050505060405180910390f35b3480156102a857600080fd5b506102c7600480360381019080803590602001909291905050506106f8565b6040518080602001838152602001828103825284818151815260200191508051906020019080838360005b8381101561030d5780820151818401526020810190506102f2565b50505050905090810190601f16801561033a5780820380516001836020036101000a031916815260200191505b50935050505060405180910390f35b34801561035557600080fd5b50610374600480360381019080803590602001909291905050506107b4565b6040518080602001838152602001828103825284818151815260200191508051906020019080838360005b838110156103ba57808201518184015260208101905061039f565b50505050905090810190601f1680156103e75780820380516001836020036101000a031916815260200191505b50935050505060405180910390f35b34801561040257600080fd5b5061040b61088a565b6040518082815260200191505060405180910390f35b60008060408051908101604052808581526020018481525060026000600360008154809291906001019190505581526020019081526020016000206000820151816000019080519060200190610478929190610890565b5060208201518160010155905050600091505b6003548210156104a65760019050818060010192505061048b565b50505050565b816000800190805190602001906104c4929190610910565b50806000600101819055507f010becc10ca1475887c4ec429def1ccc2e9ea1713fe8b0d4e9a1d009042f6b8e6000800160006001015460405180806020018381526020018281038252848181546001816001161561010002031660029004815260200191508054600181600116156101000203166002900480156105895780601f1061055e57610100808354040283529160200191610589565b820191906000526020600020905b81548152906001019060200180831161056c57829003601f168201915b5050935050505060405180910390a15050565b6000806000018054600181600116156101000203166002900480601f0160208091040260200160405190810160405280929190818152602001828054600181600116156101000203166002900480156106365780601f1061060b57610100808354040283529160200191610636565b820191906000526020600020905b81548152906001019060200180831161061957829003601f168201915b5050505050908060010154905082565b6060600080600001600060010154818054600181600116156101000203166002900480601f0160208091040260200160405190810160405280929190818152602001828054600181600116156101000203166002900480156106e95780601f106106be576101008083540402835291602001916106e9565b820191906000526020600020905b8154815290600101906020018083116106cc57829003601f168201915b50505050509150915091509091565b6002602052806000526040600020600091509050806000018054600181600116156101000203166002900480601f0160208091040260200160405190810160405280929190818152602001828054600181600116156101000203166002900480156107a45780601f10610779576101008083540402835291602001916107a4565b820191906000526020600020905b81548152906001019060200180831161078757829003601f168201915b5050505050908060010154905082565b60606000600260008481526020019081526020016000206000016002600085815260200190815260200160002060010154818054600181600116156101000203166002900480601f01602080910402602001604051908101604052809291908181526020018280546001816001161561010002031660029004801561087a5780601f1061084f5761010080835404028352916020019161087a565b820191906000526020600020905b81548152906001019060200180831161085d57829003601f168201915b5050505050915091509150915091565b60035481565b828054600181600116156101000203166002900490600052602060002090601f016020900481019282601f106108d157805160ff19168380011785556108ff565b828001600101855582156108ff579182015b828111156108fe5782518255916020019190600101906108e3565b5b50905061090c9190610990565b5090565b828054600181600116156101000203166002900490600052602060002090601f016020900481019282601f1061095157805160ff191683800117855561097f565b8280016001018555821561097f579182015b8281111561097e578251825591602001919060010190610963565b5b50905061098c9190610990565b5090565b6109b291905b808211156109ae576000816000905550600101610996565b5090565b905600a165627a7a72305820982f3192c9d7f5976c0966a6518c0f399580a1351229f5433ae1c6878b763b0a0029",
  "source": "pragma solidity ^0.4.24;\n\ncontract GestionCurso {\n    \n    struct instructor{\n        string fName;\n        uint age;\n    }\n\n    struct curso{\n        string nombreCurso;\n        uint nSesiones;\n    }\n\n    instructor public miInstructor;   \n    mapping(uint => curso) public misCursos;\n    uint public ncursos;\n\n    event Instructor(\n       string name,\n       uint age\n    );\n   \n    function setInstructor(string _fName, uint _age) public {\n        miInstructor.fName = _fName;\n        miInstructor.age = _age;\n        emit Instructor(miInstructor.fName, miInstructor.age);\n    }\n   \n    function getInstructor() public view returns (string, uint) {\n        return (miInstructor.fName, miInstructor.age);\n    }\n\n    function registraCurso(string _name, uint _nsesiones) public {\n        misCursos[ncursos++] = curso(_name,_nsesiones);\n\n        for(uint i = 0; i<ncursos;i++){\n            uint x;\n            x = 1;\n        }\n    }\n    \n    function getCursoByID(uint _id) public view returns (string, uint) {\n        return (misCursos[_id].nombreCurso, misCursos[_id].nSesiones);\n    }\n    \n}",
  "sourcePath": "/Users/garvazsof/Desktop/Curso Blockchain/testcont/contracts/GestionCurso.sol",
  "compiler": {
    "name": "solc",
    "version": "0.4.24+commit.e67f0147.Emscripten.clang"
  },
  "schemaVersion": "2.0.1",
  "updatedAt": "2018-11-15T16:52:06.580Z"
}