{
  "contractName": "Facturas",
  "abi": [
    {
      "inputs": [
        {
          "name": "_owner",
          "type": "address"
        }
      ],
      "payable": false,
      "stateMutability": "nonpayable",
      "type": "constructor",
      "signature": "constructor"
    },
    {
      "constant": true,
      "inputs": [
        {
          "name": "_cliente",
          "type": "address"
        },
        {
          "name": "_numFactura",
          "type": "uint256"
        }
      ],
      "name": "getFactura",
      "outputs": [
        {
          "name": "_producto",
          "type": "bytes32"
        },
        {
          "name": "_fecha",
          "type": "uint256"
        },
        {
          "name": "_costo",
          "type": "uint256"
        },
        {
          "name": "_cant",
          "type": "uint256"
        }
      ],
      "payable": false,
      "stateMutability": "view",
      "type": "function",
      "signature": "0x00268940"
    },
    {
      "constant": true,
      "inputs": [
        {
          "name": "_cliente",
          "type": "address"
        }
      ],
      "name": "getNumFactura",
      "outputs": [
        {
          "name": "",
          "type": "uint256"
        }
      ],
      "payable": false,
      "stateMutability": "view",
      "type": "function",
      "signature": "0x411fe84d"
    },
    {
      "constant": false,
      "inputs": [
        {
          "name": "_cliente",
          "type": "address"
        },
        {
          "name": "_producto",
          "type": "bytes32"
        },
        {
          "name": "_fecha",
          "type": "uint256"
        },
        {
          "name": "_costo",
          "type": "uint256"
        },
        {
          "name": "_cantidad",
          "type": "uint256"
        }
      ],
      "name": "addFactura",
      "outputs": [],
      "payable": false,
      "stateMutability": "nonpayable",
      "type": "function",
      "signature": "0xc659a9eb"
    }
  ],
  "bytecode": "0x608060405234801561001057600080fd5b506040516020806108158339810180604052602081101561003057600080fd5b810190808051906020019092919050505080600260006101000a81548173ffffffffffffffffffffffffffffffffffffffff021916908373ffffffffffffffffffffffffffffffffffffffff16021790555050610783806100926000396000f3fe608060405260043610610050576000357c01000000000000000000000000000000000000000000000000000000009004806226894014610055578063411fe84d146100d9578063c659a9eb1461013e575b600080fd5b34801561006157600080fd5b506100ae6004803603604081101561007857600080fd5b81019080803573ffffffffffffffffffffffffffffffffffffffff169060200190929190803590602001909291905050506101b7565b6040518085815260200184815260200183815260200182815260200194505050505060405180910390f35b3480156100e557600080fd5b50610128600480360360208110156100fc57600080fd5b81019080803573ffffffffffffffffffffffffffffffffffffffff1690602001909291905050506103ff565b6040518082815260200191505060405180910390f35b34801561014a57600080fd5b506101b5600480360360a081101561016157600080fd5b81019080803573ffffffffffffffffffffffffffffffffffffffff169060200190929190803590602001909291908035906020019092919080359060200190929190803590602001909291905050506104a4565b005b600080600080600260009054906101000a900473ffffffffffffffffffffffffffffffffffffffff1673ffffffffffffffffffffffffffffffffffffffff163373ffffffffffffffffffffffffffffffffffffffff1614151561021957600080fd5b600160008773ffffffffffffffffffffffffffffffffffffffff1673ffffffffffffffffffffffffffffffffffffffff1681526020019081526020016000205485111515156102f6576040517f08c379a00000000000000000000000000000000000000000000000000000000081526004018080602001828103825260278152602001807f4e6f20736520656e6375656e747261206c61206661637475726120657370656381526020017f696669636164610000000000000000000000000000000000000000000000000081525060400191505060405180910390fd5b6102fe61070e565b6000808873ffffffffffffffffffffffffffffffffffffffff1673ffffffffffffffffffffffffffffffffffffffff168152602001908152602001600020600087815260200190815260200160002060a060405190810160405290816000820160009054906101000a900473ffffffffffffffffffffffffffffffffffffffff1673ffffffffffffffffffffffffffffffffffffffff1673ffffffffffffffffffffffffffffffffffffffff1681526020016001820154815260200160028201548152602001600382015481526020016004820154815250509050806020015194508060400151935080606001519250806080015191505092959194509250565b6000600260009054906101000a900473ffffffffffffffffffffffffffffffffffffffff1673ffffffffffffffffffffffffffffffffffffffff163373ffffffffffffffffffffffffffffffffffffffff1614151561045d57600080fd5b600160008373ffffffffffffffffffffffffffffffffffffffff1673ffffffffffffffffffffffffffffffffffffffff168152602001908152602001600020549050919050565b600260009054906101000a900473ffffffffffffffffffffffffffffffffffffffff1673ffffffffffffffffffffffffffffffffffffffff163373ffffffffffffffffffffffffffffffffffffffff1614151561050057600080fd5b600061050b86610640565b905061051561070e565b86816000019073ffffffffffffffffffffffffffffffffffffffff16908173ffffffffffffffffffffffffffffffffffffffff168152505085816020018181525050848160400181815250508381606001818152505082816080018181525050806000808973ffffffffffffffffffffffffffffffffffffffff1673ffffffffffffffffffffffffffffffffffffffff168152602001908152602001600020600084815260200190815260200160002060008201518160000160006101000a81548173ffffffffffffffffffffffffffffffffffffffff021916908373ffffffffffffffffffffffffffffffffffffffff1602179055506020820151816001015560408201518160020155606082015181600301556080820151816004015590505050505050505050565b600060018060008473ffffffffffffffffffffffffffffffffffffffff1673ffffffffffffffffffffffffffffffffffffffff1681526020019081526020016000205401600160008473ffffffffffffffffffffffffffffffffffffffff1673ffffffffffffffffffffffffffffffffffffffff16815260200190815260200160002081905550600160008373ffffffffffffffffffffffffffffffffffffffff1673ffffffffffffffffffffffffffffffffffffffff168152602001908152602001600020549050919050565b60a060405190810160405280600073ffffffffffffffffffffffffffffffffffffffff16815260200160008019168152602001600081526020016000815260200160008152509056fea165627a7a723058205ed5faf9ce6ca6f5eb4356126212777193b62198ac6153af1297b6e491ec8e670029",
  "source": "pragma solidity ^0.5.0;\ncontract Facturas{\n    mapping (address => mapping(uint => Factura)) private facturasDesplegadas;\n    mapping (address => uint) private cantidadFacturas;\n    address owner;\n\n    constructor (address _owner )public {\n        owner=_owner;\n    }\n  \n    struct Factura{\n        address comprador;\n        bytes32 producto;    \n        uint fechaCompra;\n        uint costo;\n        uint cantidad;\n    }\n\n    modifier onlyOwner{\n        require(msg.sender==owner);\n        _;\n    }\n\n    function getFactura(address _cliente,uint _numFactura) external onlyOwner view returns(bytes32 _producto,uint _fecha,uint _costo,uint _cant){\n        //require(msg.sender==_cliente,\"Solo el cliente puede ver sus facturas\");\n        require(_numFactura<= cantidadFacturas[_cliente],\"No se encuentra la factura especificada\");\n        Factura memory fact = facturasDesplegadas[_cliente][_numFactura];\n        _producto=fact.producto;\n        _fecha=fact.fechaCompra;\n        _costo=fact.costo;\n        _cant=fact.cantidad;\n    }\n    function getNumFactura(address _cliente) view onlyOwner external returns(uint){\n        return cantidadFacturas[_cliente];\n    }\n\n     function addNumFactura(address _cliente) private returns(uint){\n        cantidadFacturas[_cliente]=cantidadFacturas[_cliente]+1;\n        return cantidadFacturas[_cliente];\n    }\n    function addFactura(address _cliente,bytes32 _producto,uint _fecha, uint _costo,uint _cantidad) onlyOwner external{\n        //require(msg.sender==owner,\"Solo el dueño del negocio puede agregar sus facturas\");\n        uint aux = addNumFactura(_cliente);\n        Factura memory factura;\n        factura.comprador=_cliente;\n        factura.producto=_producto;\n        factura.fechaCompra=_fecha;\n        factura.costo=_costo;\n        factura.cantidad=_cantidad;\n        facturasDesplegadas[_cliente][aux]=factura;\n    }\n  \n}",
  "sourcePath": "/home/garvaz/Projects/facturaFinal/contracts/Facturas.sol",
  "compiler": {
    "name": "solc",
    "version": "0.5.1+commit.c8a2cb62.Emscripten.clang"
  },
  "schemaVersion": "3.0.3",
  "updatedAt": "2019-04-02T21:56:59.888Z",
  "devdoc": {
    "methods": {}
  },
  "userdoc": {
    "methods": {}
  }
}